{
  "contractName": "Counter",
  "abi": [
    {
      "constant": true,
      "inputs": [],
      "name": "count",
      "outputs": [
        {
          "name": "",
          "type": "uint256"
        }
      ],
      "payable": false,
      "stateMutability": "view",
      "type": "function"
    },
    {
      "constant": false,
      "inputs": [],
      "name": "add",
      "outputs": [],
      "payable": false,
      "stateMutability": "nonpayable",
      "type": "function"
    },
    {
      "constant": false,
      "inputs": [],
      "name": "subtract",
      "outputs": [],
      "payable": false,
      "stateMutability": "nonpayable",
      "type": "function"
    }
  ],
  "bytecode": "0x60806040526000805534801561001457600080fd5b50610101806100246000396000f3006080604052600436106053576000357c0100000000000000000000000000000000000000000000000000000000900463ffffffff16806306661abd1460585780634f2be91f1460805780636deebae3146094575b600080fd5b348015606357600080fd5b50606a60a8565b6040518082815260200191505060405180910390f35b348015608b57600080fd5b50609260ae565b005b348015609f57600080fd5b5060a660c1565b005b60005481565b6000808154809291906001019190505550565b6000808154809291906001900391905055505600a165627a7a7230582075ca0c17a04650b67719e277a9da9680d73efd661cfede92b98151c0093128700029",
  "source": "pragma solidity ^0.4.23;\n\ncontract Counter {\n  uint public count = 0;\n\n  function add() external {\n    count++;\n  }\n\n  function subtract() external {\n    count--;\n  }\n}\n",
  "sourcePath": "/Users/colus001/Development/Counter/contracts/Counter.sol",
  "compiler": {
    "name": "solc",
    "version": "0.4.24+commit.e67f0147.Emscripten.clang"
  },
  "schemaVersion": "2.0.1",
  "updatedAt": "2018-08-29T09:22:15.157Z"
}